S01700004F70746963616C44697374616E63652E7372656316
S11300000C9485000C9432010C94A2000C94A20070
S11300100C94A2000C94A2000C94A2000C94A200D4
S11300200C94A2000C94A2000C94A2000C94A200C4
S11300300C94A2000C94A2000C94A2000C94A200B4
S11300400C94A2000C94A2000C94A2000C94A200A4
S11300500C94A2000C94A2000C94A2000C94A20094
S11300600C948B010C94A200A50109020902090257
S11300700902090209020902A50109020902090289
S11300800902090209020902AD0109020902090271
S11300900902090209020902090209020902090204
S11300A00902090209020902AD0109020902090251
S11300B009020902090209020902090209020902E4
S11300C009020902090209020502090209020902D8
S11300D00902090209020902DB01090209020902F3
S11300E009020902090209020902090209020902B4
S11300F00902090209020902CE01090209020902E0
S11301000902090209020902EF0111241FBECFEFFF
S1130110D4E0DEBFCDBF11E0A0E0B1E0EAEBF8E04F
S113012002C005900D92A230B107D9F721E0A2E0F8
S1130130B1E001C01D92A932B207E1F70E94DF00CD
S11301400C945B040C9400001F93CF93DF93EB019A
S1130150142F63E00E9464010E9460018111FCCFAE
S113016061E0610FCE010E9464010E94600181116F
S1130170FCCFCE010E948201DF91CF911F9108959F
S11301806F5F0E94640108958E7F809318017093BD
S1130190190160931A0140931B0164E088E191E026
S11301A00E946401089552985A9AE89AE9E6F0E0A8
S11301B0808182608083249A80E48CBD08950E94AB
S11301C0D3000E945601109216017894219A209827
S11301D08AB1806C8AB929988BB1806C8BB91092E2
S11301E01701109208011092150110920A01109241
S11301F009010E941D02C2E00E9431038130E1F72F
S11302008091150190E0019681709078809315019A
S11302108111F2CF85B18C2785B9EECF0DB407FEDD
S1130220FDCF8EB508958EB580911601811104C05D
S1130230809108018EBD09C0813021F480910A01AA
S11302408EBD03C0809109018EBD8091160190E09E
S1130250019663E070E00E942D04809316010E94D1
S11302600E0108951F920F920FB60F9211242F932F
S11302703F934F935F936F937F938F939F93AF932A
S1130280BF93EF93FF930E941301FF91EF91BF91EE
S1130290AF919F918F917F916F915F914F913F911A
S11302A02F910F900FBE0F901F90189580E28093AE
S11302B0B8008FEF8093BB0084E08093BC00089566
S11302C08091BC0081700895ECEBF0E0208120FD6A
S11302D0FDCF609322019093260180932501909392
S11302E0280180932701860F911D90932401809308
S11302F023011092020188EF8093000185EA809324
S1130300BC000895ECEBF0E0808180FDFDCF80918E
S11303100201817008951F920F920FB60F9211245B
S11303202F933F938F939F93AF93BF93EF93FF9339
S11303308091B90090E0FC013897E135F10508F0AF
S113034068C0EC5CFF4F0C944104809127019091AC
S113035028019093260180932501E0912501F091D5
S113036026018091230190912401E817F90768F48C
S1130370CF0101969093260180932501808180937B
S1130380BB0085E88093BC004BC080910201816072
S11303908093020184E98093BC0042C0E09125016E
S11303A0F0912601CF0101969093260180932501B7
S11303B08091BB0080838091230190912401019757
S11303C020912501309126012817390720F485EC66
S11303D08093BC0025C085E88093BC0021C0E091D7
S11303E02501F0912601CF01019690932601809377
S11303F025018091BB0080838091020181608093FC
S1130400020184E98093BC000BC085EA8093BC00A0
S113041007C08091B9008093000184E08093BC0000
S1130420FF91EF91BF91AF919F918F913F912F9148
S11304300F900FBE0F901F90189582E580931801BE
S11304401092190186E180931A0183E580930B01D0
S113045041E06BE071E088E191E00E94A4000E9419
S113046060018111FCCF80910C01813009F0F6C04C
S113047041E067E072E082E50E94C40041E068E088
S113048072E082E50E94C40040E066E970E082E523
S11304900E94C4004DEF67E970E082E50E94C40049
S11304A040E063EE70E082E50E94C40044E064EE44
S11304B070E082E50E94C40042E065EE70E082E5EF
S11304C00E94C40041E066EE70E082E50E94C40030
S11304D043E067EE70E082E50E94C40042E065EF0D
S11304E070E082E50E94C40045E069ED70E082E5B9
S11304F00E94C4004EEC6BED70E082E50E94C400E3
S113050043E06CED70E082E50E94C40048EF6DEDBD
S113051070E082E50E94C40040E06FE970E082E58B
S11305200E94C4004CE363EA70E082E50E94C400C8
S113053040E067EB70E082E50E94C4004CE36BEBA3
S113054070E082E50E94C40049E062EB70E082E55D
S11305500E94C40049E06AEC70E082E50E94C40095
S113056041E068E971E082E50E94C40047E160EB84
S113057071E082E50E94C40040E06DEA71E082E52A
S11305800E94C40045E06FEF70E082E50E94C40061
S113059045E060E071E082E50E94C40045E069E95D
S11305A071E082E50E94C4004BE166EA71E082E5F5
S11305B00E94C4004EE36CEA71E082E50E94C4002C
S11305C04FE167EA71E082E50E94C40040E060E325
S11305D070E082E50E94C40040E161E170E082E5E0
S11305E00E94C40040E36AE071E082E50E94C40016
S11305F046E46FE370E082E50E94C4004FEF61E3DC
S113060070E082E50E94C40042E360E470E082E5A9
S11306100E94C40041E06EE270E082E50E94C400E2
S113062049E06BE170E082E50E94C4004AE06EE3B9
S113063070E082E50E94C40044E264E170E082E577
S11306400E94C4004EE16CE170E082E50E94C400A7
S113065047E46FE370E082E50E94C40080E090E02C
S11306600895CF930E9460018111F0C08091170119
S11306708230C9F128F4882361F08130F9F0E8C0B0
S1130680843009F494C008F457C0853009F4B4C028
S1130690DFC082E58093180182E08093190183EA28
S11306A080931A01C1E0C0931B0164E088E191E0EA
S11306B00E94C000C093170180E0CDC082E5809302
S11306C018011092190188E380931A0183E0809342
S11306D01B0164E088E191E00E94C00082E0809305
S11306E0170180E0B8C082E58093180110921901C7
S11306F08FE480931A0183E580930B0141E06BE062
S113070071E088E191E00E94A400809103018823B4
S113071031F080910C0182FB882780F905C080911B
S11307200C0185FB882780F9882309F493C083E0B2
S11307308093170180E08FC082E580931801809137
S113074003018823A1F01092190182E680931A0113
S113075083E580930B0141E06BE071E088E191E077
S11307600E94A40080910C01809308011BC0109288
S1130770190180E580931A0183E580930B0142E01F
S11307806BE071E088E191E00E94A40080910C018B
S113079090E0982F882720910D01822B90930A01D5
S11307A08093090184E08093170180E054C082E5BE
S11307B0809318011092190185E180931A018091A8
S11307C00301882321F081E080931B0103C082E0B0
S11307D080931B0164E088E191E00E94C00082E004
S11307E0809317018091030190E0019681709078C5
S11307F08093030181E02FC082E5809318018091EA
S11308000301882331F0109219018DE480931A01B9
S113081005C0109219018EE480931A0183E5809338
S11308200B0141E06BE071E088E191E00E94A400DB
S113083080910C0180FF05C081E08093170180E066
S11308400AC085E08093170180E005C080E003C002
S113085080E001C080E0CF91089597FB072E16F445
S1130860009407D077FD09D00E94470407FC05D007
S11308703EF4909581959F4F0895709561957F4FB3
S11308800895EE0FFF1F0590F491E02D0994AA1B23
S1130890BB1B51E107C0AA1FBB1FA617B70710F067
S11308A0A61BB70B881F991F5A95A9F78095909599
S10D08B0BC01CD010895F894FFCFB8
S10508BAF80040
S9030000FC
